:020000040800F2
:100000000000022035530008351800083718000892
:10001000391800083B1800083D18000800000000CF
:100020000000000000000000000000003F18000871
:100030004118000800000000431800084518000897
:100040008553000885530008855300088553000830
:100050008553000885530008855300088553000820
:1000600085530008511800085B18000885530008E4
:100070008553000885530008855300088553000800
:1000800085530008855300088553000885530008F0
:10009000855300088553000885530008651800083B
:1000A00085530008855300088553000885530008D0
:1000B000855300087118000885530008855300080F
:1000C00085530008855300088553000885530008B0
:1000D00085530008811800088553000885530008DF
:1000E0008553000885530008855300088553000890
:1000F0008553000885530008855300088553000880
:10010000855300088553000885530008855300086F
:10011000855300088553000891180008A1180008AD
:10012000855300088553000885530008855300084F
:10013000855300088553000885530008855300083F
:10014000855300088553000885530008855300082F
:10015000855300088553000885530008855300081F
:10016000855300088553000885530008855300080F
:1001700085530008855300088553000800000000DF
:080180008553000885530008B7
:1001900010B5054C237833B9044B13B10448AFF3C1
:1001A00000800123237010BD7400002000000000B7
:1001B000DC6100080C4B43B10C480D4910B5AFF39E
:1001C00000800C48036823B910BD0A48036833B99E
:1001D0007047094B002BF7D0BDE810401847064B7D
:1001E000002BF5D0184700BF00000000DC610008BC
:1001F00078000020740000200000000000000000D3
:1002000001F0FF01102A2BDB10F0070F08D010F8C7
:10021000013B013A8B422DD010F0070F42B3F6D1CB
:10022000F0B441EA012141EA014122F007047FF0E4
:1002300000070023F0E80256083C85EA010586EA3B
:10024000010685FA47F5A3FA87F586FA47F6A5FA77
:1002500087F68EB9EED1F0BC01F0FF0102F0070283
:1002600032B110F8013B013A83EA010313B1F8D12E
:100270000020704701387047002D06BF354603380F
:10028000073815F0010F07D1013015F4807F02BF48
:10029000013015F4C03F0130F0BC0138704700BF99
:1002A00053B94AB9002908BF00281CBF4FF0FF31DD
:1002B0004FF0FF3000F07AB9ADF1080C6DE904CED3
:1002C00000F006F8DDF804E0DDE9022304B0704731
:1002D0002DE9F0478C460D460446089E002B51D16F
:1002E0008A4217466DD9B2FA82FEBEF1000F0BD0DA
:1002F000CEF1200C01FA0EF520FA0CFC02FA0EF7F2
:100300004CEA050C00FA0EF44FEA174A250CBCFB28
:10031000FAF81FFA87F90AFB18CC45EA0C4508FBE6
:1003200009F3AB420AD9ED1908F1FF3280F02381BD
:10033000AB4240F22081A8F102083D44ED1AA4B27C
:10034000B5FBFAF00AFB105544EA054400FB09F935
:10035000A14509D9E41900F1FF3380F00A81A145D4
:1003600040F2078102383C44A4EB090440EA08400B
:100370000021002E61D024FA0EF400233460736053
:10038000BDE8F0878B4207D9002E54D0002186E8C3
:1003900021000846BDE8F087B3FA83F1002940F058
:1003A0008E80AB4202D3824200F2FA80841A65EB5F
:1003B00003050120AC46002E3FD086E81010BDE8B2
:1003C000F08712B90127B7FBF2F7B7FA87FEBEF143
:1003D000000F34D1EB1B3A0C1FFA87FC0121B3FB51
:1003E000F2F8250C02FB183345EA03450CFB08F331
:1003F000AB4207D9ED1908F1FF3002D2AB4200F24F
:10040000D1808046ED1AA3B2B5FBF2F002FB105585
:1004100043EA05440CFB00FCA44507D9E41900F1AC
:10042000FF3302D2A44500F2B8801846A4EB0C04B6
:1004300040EA08409DE731463046BDE8F087CEF1FE
:10044000200405FA0EF307FA0EF720FA04F83A0C26
:1004500025FA04F448EA0308B4FBF2F14FEA184520
:1004600002FB11441FFA87FC45EA044501FB0CF32B
:10047000AB4200FA0EF409D9ED1901F1FF3080F01A
:100480008A80AB4240F2878002393D44EB1A1FFA62
:1004900088F5B3FBF2F002FB103345EA034500FB9D
:1004A0000CF3AB4207D9ED1900F1FF386FD2AB4224
:1004B0006DD902383D44EB1A40EA01418FE7C1F1A2
:1004C000200722FA07F88B4005FA01F448EA0303F3
:1004D00020FA07FE4FEA134CFD404EEA040EB5FB2E
:1004E000FCF94FEA1E440CFB19551FFA83F844EA45
:1004F000054509FB08F4AC4202FA01F200FA01FAE0
:1005000008D9ED1809F1FF3043D2AC4241D9A9F125
:1005100002091D442D1B1FFA8EFEB5FBFCF00CFBDF
:1005200010554EEA054400FB08F8A04507D9E41829
:1005300000F1FF3529D2A04527D902381C4440EAF2
:100540000940A4EB0804A0FB02894C45C6464D4671
:1005500015D312D056B1BAEB0E0364EB050404FABE
:1005600007F7CB401F43CC40376074600021BDE8E3
:10057000F0871846F8E69046E0E6C245EAD2B8EBC6
:10058000020E69EB03050138E4E72846D7E7404649
:1005900091E78146BEE7014678E702383C4445E7EB
:1005A000084608E7A8F102083D442BE7704700BF62
:1005B00008B50B480B4B03604FF4E1334360002355
:1005C0008360C36003610C2242618361C36103F0F5
:1005D000B5FF00B908BD4C21034804F0B7FDF9E7A9
:1005E000B400002000100140F46100080268164BBE
:1005F0009A4200D0704710B586B00024009403F5ED
:1006000094335A6C42F010025A645B6C03F010038E
:100610000093009B4FF4C0630193022302930123D4
:100620000393032304930723059301A9074804F0C8
:10063000D3FB22462146252004F0F2FA252004F0BF
:1006400033FB06B010BD00BF0010014000000240A7
:1006500038B504460D460368334A93421FD0B3F1C0
:10066000804F1CD0A2F57C42934218D002F58062E4
:10067000934214D002F58062934210D002F580625A
:1006800093420CD002F58062934208D002F570428A
:10069000934204D040F24A61244804F0E9FD2B68FB
:1006A00093B1102B10D0202B0ED0302B0CD0402B20
:1006B0000AD0502B08D0602B06D0702B04D040F20B
:1006C0004B611A4804F0D4FD6B68802B00D01BBB33
:1006D00094F83830012B25D0012284F838200223E9
:1006E00084F8393021684B6823F070034B6021682F
:1006F0004B68286803434B6021688B6823F08003B4
:100700008B6021688B68686803438B6084F83920AC
:10071000002084F8380038BD40F24C61034804F0F2
:10072000A7FDD5E7022038BD0000014000620008A7
:100730007047704708B50A480A4B036000234360BE
:100740007F228260FF22C26003614361836102F005
:10075000C3FD00B908BD4A21034804F0F7FCF9E7DE
:10076000F400002000280040386200080268044BB2
:100770009A4200D070470122024B1A60FAE700BF8C
:10078000002800403C0E4742054B064A1A600022F2
:100790005A609A60DA601A615A619A61704700BFC4
:1007A00014010020002C01400268174B9A4200D02F
:1007B0007047F0B587B00024009403F586335A6C77
:1007C00042F400625A645B6C03F400630093009B84
:1007D0004FF488530193022702970394032604964B
:1007E0000C25059501A9094804F0F6FA04230193A4
:1007F00002970394049605950DEB0301044804F059
:10080000EBFA07B0F0BD00BF002C01400008024029
:10081000000C024070B505460C46B0F1204F03D0E5
:1008200096215B4804F024FD23684BB1022B07D0CE
:10083000042B05D0062B03D09721554804F018FD52
:1008400063682BB1022B03D09821514804F010FDAE
:10085000A3683BB1042B05D0082B03D099214C4849
:1008600004F006FDE3683BB1102B05D0202B03D02C
:100870009A21474804F0FCFC236933B1B3F5807F2B
:1008800003D09B21424804F0F3FC636933B1B3F514
:10089000007F03D09C213E4804F0EAFCA36933B1F9
:1008A000B3F5806F03D09E21394804F0E1FCE36981
:1008B00033B1B3F5006F03D0A021354804F0D8FC64
:1008C000236A33B1B3F5805F03D0A121304804F02F
:1008D000CFFC636A33B1B3F5005F03D0A2212C488B
:1008E00004F0C6FCA36A33B1B3F5804F03D0A32153
:1008F000274804F0BDFCE36A33B1B3F5004F03D0E1
:10090000A421234804F0B4FC236B33B1B3F5002FCA
:1009100003D0A5211E4804F0ABFCE36B7BB1B3F51B
:10092000803F0CD0B3F5003F09D0B3F5403F06D06F
:10093000B3F5802F03D0A621154804F099FC216857
:1009400055F82130134A1A406368A0680343E668EB
:1009500033432669334366693343A6693343E66903
:100960003343266A3343666A3343A66A3343E66AEF
:100970003343E66B3343246B23431343082803D0EC
:1009800045F82130002070BD43F04003F8E700BF78
:10099000446200088000F0FF70B505460C4616461C
:1009A000B0F1204F04D04FF494713B4804F060FC48
:1009B00023680F2B4CD86368013B0E2B4ED8A368DD
:1009C000013BFE2B50D8E3680F2B53D82369023B21
:1009D0000E2B55D86369023B0F2B57D8A3696BB117
:1009E000B3F1805F0AD0B3F1005F07D0B3F1405F8D
:1009F00004D040F22F11284804F03AFC56B1022EE0
:100A000008D0042E06D0062E04D04FF49871224848
:100A100004F02EFC013655F8262002F040422368EF
:100A2000616843EA0113A16843EA0123E16843EAEC
:100A300001432169013943EA01536169023943EAFB
:100A40000163A1690B43134345F82630002070BDB4
:100A500040F22911104804F00BFCACE74FF49571FB
:100A60000D4804F005FCAAE740F22B110A4804F0F7
:100A7000FFFBA8E74FF49671074804F0F9FBA5E7E0
:100A800040F22D11044804F0F3FBA3E74FF49771F3
:100A9000014804F0EDFBA1E744620008F8B5064602
:100AA0000C4615461F463BB1B3F5804F04D040F2CB
:100AB0005F11354804F0DCFBB7F5804F05D06FF0CF
:100AC000704346F825300020F8BD304B9E4204D0DC
:100AD00040F265112C4804F0CBFB23680F2B3AD869
:100AE0006368013B0E2B3CD8A368013BFE2B3ED82C
:100AF000E3680F2B41D8A3696BB1B3F1805F0AD0D3
:100B0000B3F1005F07D0B3F1405F04D04FF4B5718B
:100B10001D4804F0ADFB55B1022D08D0042D06D0C0
:100B2000062D04D040F26B11174804F0A1FB56F8D3
:100B30002530174A1A402368616843EA0113A16807
:100B400043EA0123E16843EA0143A1690B431343EC
:100B500046F82530B7E74FF4B3710B4804F088FB33
:100B6000BEE740F26711084804F082FBBCE74FF48F
:100B7000B471054804F07CFBBAE740F26911024801
:100B800004F076FBB7E700BF44620008040100A050
:100B90000000F0CF002800F0B88010B504460368CC
:100BA0005B4A93420CD0A2F57842934208D002F5FA
:100BB0008062934204D04FF48771564804F058FB8A
:100BC00063683BB1B3F5827F04D040F20F11514806
:100BD00004F04EFBA36853B1B3F5806F07D0B3F5B3
:100BE000004F04D04FF488714A4804F041FBE36899
:100BF000B3F5006F01D0002B7BD1A369B3F5007F63
:100C000008D03BB1B3F5802F04D04FF4897141482F
:100C100004F02EFBE36993B1082B10D0102B0ED0FB
:100C2000182B0CD0202B0AD0282B08D0302B06D024
:100C3000382B04D040F21311364804F019FB236A14
:100C400033B1802B04D04FF48A71324804F010FB8A
:100C5000636A33B1102B04D040F215112D4804F013
:100C600007FB636A83B9236933B1022B04D04FF4C5
:100C70008C71284804F0FCFA6369012B04D940F216
:100C80001911244804F0F4FA0023A36294F85130B7
:100C9000002B34D0022384F851302268136823F0EB
:100CA0004003136022686368A1680B43E1680B434B
:100CB00021690B4361690B43A16901F400710B4386
:100CC000E1690B43216A0B43A16A0B43136022685D
:100CD000638B03F00403616A0B4353602268D3699A
:100CE00023F40063D36100206065012384F8513050
:100CF00010BD40F21111074804F0BAFA7DE784F8FC
:100D00005030204600F06CFDC4E70120704700BF62
:100D1000003001407C62000828B370B504461546D7
:100D20000E4690F84930CBB104F108012068FFF776
:100D300071FDA26831462068FFF72EFE236BA26882
:100D400029466068FFF7AAFE2268A16852F82130A0
:100D500043F0010342F82130002070BD80F8483094
:100D600000F072F8E0E7012070470000174B1B68A5
:100D700003B17047F0B587B00122144B1A6000240C
:100D80000094134B9A6B42F001029A639B6B03F041
:100D900001030093009B4FF6807301930227029793
:100DA0000394032604960C25059501A9094804F02F
:100DB00013F84EF2B37301930297039404960595CA
:100DC00001A9054804F008F807B0F0BD9000002024
:100DD0000038024000100240000C024010B588B0FC
:100DE00017484FF02043036003F5827343600022ED
:100DF0008260C2600261102343618261C26102624B
:100E000042624FF480518162C26202634263826334
:100E10004264012101910F2402940224039404915D
:100E2000059311230693079201A9FFF775FF08B9EF
:100E300008B010BD6021034804F088F9F8E700BF4E
:100E400098010020B462000808B5FFF78FFF08BDC5
:100E5000002800F0358270B582B0044603680F2B7D
:100E60003DD8236813F0010F4CD063684BB1B3F544
:100E7000803F06D0B3F5A02F03D0FD21A24804F097
:100E8000F7F9A24B9B6803F00C03042B31D09F4B66
:100E90009B6803F00C03082B26D06368B3F5803FF2
:100EA0005FD0B3F5A02F62D0984B1A6822F480323D
:100EB0001A601A6822F480221A606368002B60D0DE
:100EC00000F04EFC0546914B1B6813F4003F19D10E
:100ED00000F046FC401B6428F5D90320F5E1F82119
:100EE000894804F0C5F9BCE7884B5B6813F4800FB0
:100EF000D3D0864B1B6813F4003F03D06368002BEC
:100F000000F0E081236813F0020F66D0E368012B44
:100F100004D940F22F117C4804F0AAF923691F2B51
:100F20003ED87A4B9B6813F00C0F44D0774B9B68EC
:100F300003F00C03082B39D0E368002B76D0012294
:100F4000734B1A6000F00CFC0546704B1B6813F0E5
:100F5000020F62D100F004FC401B0228F5D90320E7
:100F6000B3E16A4A136843F480331360A5E7674B23
:100F70001A6842F480221A601A6842F480321A60B9
:100F80009BE700F0EDFB0546604B1B6813F4003F48
:100F9000B8D000F0E5FB401B6428F5D9032094E1AC
:100FA0004FF49871584804F063F9BAE7574B5B68FF
:100FB00013F4800FC0D1554B1B6813F0020F04D0FF
:100FC000E368012B01D001207FE1504A136823F030
:100FD000F803216943EAC1031360236813F0080F83
:100FE00048D06369012B04D94FF4B871464804F026
:100FF0003FF9636963B30122464B1A6000F0B0FB0E
:101000000546424B5B6F13F0020F33D100F0A8FB93
:10101000401B0228F5D9032057E13C4A136823F00E
:10102000F803216943EAC1031360D6E70022384B75
:101030001A6000F095FB0546344B1B6813F0020F55
:10104000CBD000F08DFB401B0228F5D903203CE1FA
:101050000022304B1A6000F083FB05462B4B5B6F80
:1010600013F0020F06D000F07BFB401B0228F5D9DD
:1010700003202AE1236813F0040F00F08580A368A1
:10108000012B06D9052B04D04FF4CE711E4804F075
:10109000EFF81E4B1B6C13F0805F33D100230193DC
:1010A0001A4B1A6C42F080521A641B6C03F0805386
:1010B0000193019B0125184B1B6813F4807F2DD0F1
:1010C000A368012B3ED0052B42D0104B1A6F22F0A3
:1010D00001021A671A6F22F004021A67A368002B34
:1010E00040D000F03DFB0646084B1B6F13F0020F8B
:1010F00049D100F035FB801B41F288339842F3D987
:101100000320E2E00025D6E7C06200080038024074
:1011100000004742800E4742007000406D4A13684D
:1011200043F48073136000F01BFB0646694B1B6899
:1011300013F4807FC4D100F013FB801B0228F5D983
:101140000320C2E0644A136F43F001031367C5E74D
:10115000614B1A6F42F004021A671A6F42F00102E3
:101160001A67BBE700F0FCFA06465B4B1B6F13F0F7
:10117000020F08D000F0F4FA801B41F28833984245
:10118000F3D90320A1E00DBBA369022B24D8A369E6
:10119000002B00F09980504A926802F00C02082A55
:1011A00000F09580022B1DD000224C4B1A6000F0FD
:1011B000D7FA0446484B1B6813F0007F7ED000F03E
:1011C000CFFA001B0228F5D903207EE0424A136CB7
:1011D00023F080531364D7E740F2DF11404804F056
:1011E00047F8D4E7E3693BB1B3F5800F04D04FF47F
:1011F000F4713B4804F03CF8236A3F2B28D8636A1B
:10120000323BB3F5BF7F29D8A36A022B0AD0042B47
:1012100008D0062B06D0082B04D040F2EB11304842
:1012200004F026F8E36A023B0D2B1DD800222B4B5D
:101230001A6000F095FA0546274B1B6813F0007FF3
:1012400018D000F08DFA401B0228F5D903203CE0AD
:1012500040F2E911224804F00BF8D0E74FF4F571A1
:101260001F4804F005F8CFE74FF4F6711C4803F06F
:10127000FFFFDBE7E369226A1343626A43EA8213F2
:10128000A26A5208013A43EA0243E26A43EA02636D
:10129000114A53600122114B1A6000F061FA0446B2
:1012A0000D4B1B6813F0007F06D100F059FA001BAC
:1012B0000228F5D9032008E0002006E0002004E021
:1012C00001207047012000E0002002B070BD012025
:1012D000FBE700BF0070004000380240600047425A
:1012E000C0620008F8B5314B9B6803F00C03042B77
:1012F00059D0082B01D02E48F8BD2C4B5A6802F06B
:101300003F025B6813F4800F2AD0284B5B68C3F35D
:1013100088131E4600275C010025E41A65EB0705CB
:10132000A90141EA9461A001001B61EB0501CB001A
:1013300043EA5073C400A01943EB07014B0243EA90
:10134000D0534402204619460023FEF7A9FF174B4D
:101350005B68C3F3014301335B00B0FBF3F0F8BDFE
:10136000124B5B68C3F388131E4600275C010025FF
:10137000E41A65EB0705A90141EA9461A001001B8D
:1013800061EB0501CB0043EA5073C400A01943EBA5
:1013900007018B0243EA905384022046194600233A
:1013A000FEF77EFFD3E70348F8BD00BF00380240D8
:1013B0000024F40000127A00002800F0F68070B5D6
:1013C00004460D460368013B0E2B11D8072D15D896
:1013D000784B1B6803F00F039D4215D9EBB2754A99
:1013E0001370136803F00F039D420DD0012070BDF0
:1013F0004FF41471704803F03BFFE7E740F25121CE
:101400006D4803F035FFE3E7236813F0020F2ED099
:1014100013F0040F04D0694A936843F4E0539360D7
:10142000236813F0080F04D0644A936843F46043C0
:101430009360A368A3B1802B12D0902B10D0A02B67
:101440000ED0B02B0CD0C02B0AD0D02B08D0E02B64
:1014500006D0F02B04D04FF41D71574803F008FF5D
:10146000564A936823F0F003A1680B439360236806
:1014700013F0010F3CD06368032B25D86368012B60
:1014800028D09A1E012A2CD94C4A126812F0020F59
:1014900000F08D8049498A6822F0030213438B6073
:1014A00000F05EF90646454B9B6803F00C0362684A
:1014B000B3EB820F1CD000F053F9801B41F288334C
:1014C0009842F0D9032070BD40F27B213A4803F0E6
:1014D000CFFED3E7394A126812F4003FDAD1012077
:1014E00070BD364A126812F0007FD3D1012070BD62
:1014F000304B1B6803F00F039D4209D2EAB22D4B1B
:101500001A701B6803F00F039D4201D0012070BDCB
:10151000236813F0040F19D0E36883B1B3F5805F3B
:101520000DD0B3F5A05F0AD0B3F5C05F07D0B3F517
:10153000E05F04D040F2B9211F4803F099FE1F4A32
:10154000936823F4E053E1680B439360236813F03E
:10155000080F1AD0236983B1B3F5805F0DD0B3F5BE
:10156000A05F0AD0B3F5C05F07D0B3F5E05F04D049
:101570004FF43071104803F07BFE104A936823F457
:101580006043216943EAC1039360FFF7ABFE0B4B55
:101590009B68C3F303130A4AD35CD840094B186015
:1015A000002000F091F8002070BD0120704701205C
:1015B00070BD00BF003C0240C0620008003802401D
:1015C000706400080C000020014B1868704700BFD1
:1015D0000C00002008B5FFF7F7FF044B9B68C3F32E
:1015E0008223034AD35CD84008BD00BF00380240C4
:1015F0008064000808B5FFF7E7FF044B9B68C3F35E
:101600004233034AD35CD84008BD00BF00380240D3
:101610008064000808B5032003F0E4FA00221146B4
:101620006FF00B0003F0FCFA002211466FF00A0085
:1016300003F0F6FA002211466FF0090003F0F0FA09
:10164000002211466FF0040003F0EAFA002211466E
:101650006FF0030003F0E4FA002211466FF001007E
:1016600003F0DEFA002211464FF0FF3003F0D8FA03
:1016700008BD0000104B5B7ADBB930B40E4B5D7ACD
:10168000EDB200245C555D7A03EB85056860587AFD
:10169000184402725A7AD2B2501CC0B25872303218
:1016A0000A703A234B702F238B70CC70204630BCCD
:1016B00070470120704700BF9400002008B5002249
:1016C000FFF7D8FF08BD000010B504460E4B187890
:1016D0004FF47A73B3FBF0F30C4A1068B0FBF3F0ED
:1016E00003F0F8FA68B90F2C01D9012010BD0022CF
:1016F00021464FF0FF3003F093FA054B1C600020A9
:1017000010BD012010BD00BF000000200C00002013
:101710000400002008B50B4B1A6842F400721A60EE
:101720001A6842F480621A601A6842F480721A6081
:10173000032003F057FA0020FFF7C6FFFFF76AFF08
:10174000002008BD003C0240034A1168034B1B788F
:101750000B441360704700BFE80100200000002028
:10176000014B1868704700BFE801002038B50446F7
:10177000FFF7F6FF0546B4F1FF3F02D0044B1B789C
:101780001C44FFF7EDFF401B8442FAD838BD00BF70
:101790000000002008B50F480F4B03604FF4827320
:1017A000436000238360C360036143614FF40072B0
:1017B00082612822C2610362436283620A23C36298
:1017C000FFF7E8F900B908BD4F21044803F0BEFC5B
:1017D000F9E700BFEC01002000380040F862000883
:1017E0000268124B9A4200D0704700B587B00021C2
:1017F000009103F500331A6C42F480421A641B6CAA
:1018000003F480430093009B4FF460430193022351
:1018100002930391032304930523059301A904482C
:1018200003F0DAFA07B05DF804FB00BF00380040AF
:10183000000402407047FEE7FEE7FEE7FEE7704760
:101840007047704708B5FFF77FFF03F078FA08BDCF
:1018500008B5082003F06CFC08BD08B5102003F0A3
:1018600067FC08BD08B5202003F062FC08BD00003D
:1018700008B5024800F021FD08BD00BF4402002069
:1018800008B5024802F0B6FF08BD00BFB400002052
:1018900008B5024800F011FD08BD00BF800200201D
:1018A00008B5024800F009FD08BD00BFBC020020D9
:1018B00000B583B01148124B036042F2CF0343607E
:1018C0000023836040F2F313C36000F041FE50B97F
:1018D00000230093019369460848FEF7B9FE38B922
:1018E00003B05DF804FB7721064803F02FFCEFE717
:1018F0007E21044803F02AFCF2E700BF80020020AA
:10190000001000400463000800B583B01048114B7C
:10191000036040F247334360002383606323C36066
:1019200000F016FE50B90023009301936946084861
:10193000FEF78EFE38B903B05DF804FB8D21064832
:1019400003F004FCEFE79421034803F0FFFBF2E708
:10195000BC020020001400400463000800B585B0FC
:101960000368244A934208D0234A934219D0234A59
:1019700093422AD005B05DF804FB00210191204B71
:101980001A6C42F002021A641B6C03F0020301930A
:10199000019B0A461D2003F043F91D2003F084F942
:1019A000E8E700210291164B1A6C42F010021A640B
:1019B0001B6C03F010030293029B0A46362003F0CF
:1019C0002FF9362003F070F9D4E7002103910C4B76
:1019D0001A6C42F020021A641B6C03F0200303937C
:1019E000039B0A46372003F01BF9372003F05CF90C
:1019F000C0E700BF00040040001000400014004099
:101A00000038024002680A4B9A4200D0704700B585
:101A100087B002230193029300220392049205935C
:101A200001A9044803F0D8F907B05DF804FB00BF32
:101A3000000400400004024000B58FB02648274B48
:101A4000036040F28F634360002383606322C260BF
:101A5000036100F07DFD30BB0EA94FF4805341F8C7
:101A6000103D1D4800F04AF910BB1B4800F0E4FD92
:101A700018BB00230893099308A91748FEF7E8FD4F
:101A800000BB6023019300230293039305930C2270
:101A900001A9114800F090FEC8B90F48FFF7B2FF46
:101AA0000FB05DF804FB4B210D4803F04FFBD3E76B
:101AB00051210B4803F04AFBD7E75621084803F0B1
:101AC00045FBD6E75D21064803F040FBD9E76621D8
:101AD000034803F03BFBE0E7440200200004004021
:101AE0000463000830B4036A23F001030362036A4D
:101AF0004468826922F073020D682A4323F00203CE
:101B00008D682B430F4DA8421AD005F58065A84279
:101B100014D000255DB123F00803CD682B4323F0DA
:101B2000040324F440744D692C438D692C434460B4
:101B300082614A684263036230BC70470125E9E76D
:101B40000125E7E70000014010B4036A046A24F0AD
:101B500001040462846924F0F00444EA021223F0D0
:101B60000A030B43826103625DF8044B704710B4B3
:101B7000036A23F0100303628469036A24F4704447
:101B800044EA023223F0A00343EA011382610362B4
:101B90005DF8044B7047836823F0700341F0070140
:101BA0000B438360704710B4846824F47F4442EA96
:101BB000032319430C4384605DF8044B7047000015
:101BC0002DE9F04104460E46036A23F48073036254
:101BD000056AD0F80480C76927F073070B681F43B4
:101BE00025F400758B6845EA0325214B984231D0D6
:101BF00003F5806398422BD000230BB3F36833B115
:101C0000082B04D041F217311A4803F031FBB369B5
:101C1000B3F5007F00D0FBB97369B3F5807F00D0C6
:101C200003BB25F40065F36845EA032525F48065C8
:101C300028F44058736948EA0318B36948EA03185E
:101C4000C4F80480E7617368E3632562BDE8F0814E
:101C50000123D2E70123D0E741F21831054803F010
:101C600007FBD9E741F21931024803F001FBD8E73D
:101C700000000140106300082DE9F04104460F46C2
:101C8000036A23F480530362056AD0F80480C669AE
:101C900026F4E6460B6846EA032625F400558B68D1
:101CA00045EA0335124B984219D003F580639842F8
:101CB00013D000234BB17B69B3F5807F00D083B98B
:101CC00028F480487B6948EA8318C4F80480E661F8
:101CD0007B6823642562BDE8F0810123EAE70123E4
:101CE000E8E741F25D31034803F0C2FAE8E700BFDC
:101CF00000000140106300087047000038B590F8FC
:101D00003830012B00F0CD820D460446012380F8C7
:101D10003830022380F839300B68B3F5805F16D075
:101D2000B3F5005F13D093B1102B10D0202B0ED041
:101D3000302B0CD0402B0AD0502B08D0602B06D073
:101D4000702B04D040F67771A84803F091FA22680E
:101D5000936823F47F4323F0770393602B68402B31
:101D600000F0F8814AD9702B00F0448100F2A58080
:101D7000502B00F09481602B40F0318123689C4A05
:101D800093421FD0B3F1804F1CD0A2F57C42934206
:101D900018D002F58062934214D002F5806293421B
:101DA00010D002F5784293420CD002F57052934263
:101DB00008D0A2F59432934204D040F6C4718B4807
:101DC00003F056FA6B68B3F5004F09D043B1022B0C
:101DD00006D00A2B04D040F6C771844803F048FAB5
:101DE000EB680F2B00F2B081EA6869682068FFF7A2
:101DF000BEFE60212068FFF7CEFEF0E0102B00F061
:101E0000FE812ED9202B00F02382302B40F0E7807A
:101E10002368774A93421FD0B3F1804F1CD0A2F5BC
:101E20007C42934218D002F58062934214D002F5AE
:101E30008062934210D002F5784293420CD002F5B2
:101E40007052934208D0A2F59432934204D040F6E7
:101E5000F271664803F00CFA30212068FFF79BFE10
:101E6000BDE0002B40F0BB802368614A93421FD045
:101E7000B3F1804F1CD0A2F57C42934218D002F5FA
:101E80008062934214D002F58062934210D002F532
:101E9000784293420CD002F57052934208D0A2F5DA
:101EA0009432934204D04FF47E61504803F0E0F93D
:101EB00000212068FFF76FFE91E0B3F5805F4DD001
:101EC000B3F5005F40F08B802368494A934217D0F6
:101ED000B3F1804F14D0A2F57C42934210D002F5AA
:101EE000806293420CD002F58062934208D002F5E2
:101EF0007842934204D040F6A4713C4803F0B8F90C
:101F00006B68B3F5004F09D043B1022B06D00A2B02
:101F100004D040F6A671354803F0AAF9AB686BB15E
:101F2000B3F5805F0AD0B3F5005F07D0B3F5405F2B
:101F300004D040F6A7712D4803F09AF9EB680F2BF7
:101F400000F2A780EB686A68A9682068FFF72BFE9B
:101F50002268936843F48043936040E02368244AF6
:101F6000934237D0B3F1804F34D0A2F57C429342F4
:101F700030D002F5806293422CD002F58062934209
:101F800028D002F58062934224D002F58062934209
:101F900020D002F5704293421CD002F57052934259
:101FA00018D002F58062934214D002F58062934209
:101FB00010D0A2F5983293420CD002F58062934281
:101FC00008D002F58062934204D040F6837107483E
:101FD00003F04EF92268936823F00703936001230E
:101FE00084F83930002084F8380038BD10630008C8
:101FF000000001402368AC4A934217D0B3F1804FF0
:1020000014D0A2F57C42934210D002F58062934234
:102010000CD002F58062934208D002F578429342D8
:1020200004D040F68C71A14803F022F96B68B3F537
:10203000004F09D043B1022B06D00A2B04D040F642
:102040008E719A4803F014F9AB686BB1B3F5805FF9
:102050000AD0B3F5005F07D0B3F5405F04D040F677
:102060008F71924803F004F9EB680F2B0BD8EB68E3
:102070006A68A9682068FFF796FD2268936843F0B4
:1020800077039360ABE74FF47961884803F0F0F889
:10209000EDE740F6A871854803F0EAF852E72368B7
:1020A000814A93422FD0B3F1804F2CD0A2F57C42CD
:1020B000934228D002F58062934224D002F58062D8
:1020C000934220D002F5784293421CD002F5705220
:1020D000934218D002F58062934214D002F58062D8
:1020E000934210D0A2F5983293420CD002F5806250
:1020F000934208D002F58062934204D040F6B67154
:102100006A4803F0B5F86B68B3F5004F09D043B1E6
:10211000022B06D00A2B04D040F6B971634803F0B5
:10212000A7F8EB680F2B09D8EA6869682068FFF701
:102130000BFD50212068FFF72EFD50E740F6BA71E5
:102140005A4803F095F8EFE740F6C871574803F096
:102150008FF849E62368544A93422FD0B3F1804F59
:102160002CD0A2F57C42934228D002F580629342A3
:1021700024D002F58062934220D002F57842934247
:102180001CD002F57052934218D002F5806293423F
:1021900014D002F58062934210D0A2F59832934297
:1021A0000CD002F58062934208D002F5806293421F
:1021B00004D040F6D2713D4803F05AF86B68B3F58D
:1021C000004F09D043B1022B06D00A2B04D040F6B1
:1021D000D571364803F04CF8EB680F2B09D8EA6844
:1021E00069682068FFF7B0FC40212068FFF7D3FC46
:1021F000F5E640F6D6712D4803F03AF8EFE723688C
:10220000294A93421FD0B3F1804F1CD0A2F57C42E3
:10221000934218D002F58062934214D002F5806296
:10222000934210D002F5784293420CD002F57052DE
:10223000934208D0A2F59432934204D040F6E6715E
:102240001A4803F015F810212068FFF7A4FCC6E631
:102250002368154A93421FD0B3F1804F1CD0A2F5DA
:102260007C42934218D002F58062934214D002F56A
:102270008062934210D002F5784293420CD002F56E
:102280007052934208D0A2F59432934204D040F6A3
:10229000EC71064802F0ECFF20212068FFF77BFC80
:1022A0009DE6022038BD00BF000001401063000819
:1022B0007047704770477047704710B50446036811
:1022C0001A6912F0020F11D0DA6812F0020F0DD065
:1022D0006FF002021A610123037603689B6913F011
:1022E000030F70D0FFF7E6FF0023237623681A69F7
:1022F00012F0040F12D0DA6812F0040F0ED06FF053
:1023000004021A610223237623689B6913F4407F39
:102310005FD02046FFF7CEFF0023237623681A699B
:1023200012F0080F12D0DA6812F0080F0ED06FF01A
:1023300008021A61042323762368DB6913F0030F74
:102340004ED02046FFF7B6FF0023237623681A6994
:1023500012F0100F12D0DA6812F0100F0ED06FF0DA
:1023600010021A61082323762368DB6913F4407F87
:102370003DD02046FFF79EFF0023237623681A698D
:1023800012F0010F03D0DA6812F0010F36D1236882
:102390001A6912F0800F03D0DA6812F0800F34D17E
:1023A00023681A6912F0400F03D0DA6812F0400F68
:1023B00032D123681A6912F0200F03D0DA6812F0C4
:1023C000200F30D110BDFFF774FF2046FFF773FFD9
:1023D0008AE72046FFF76DFF2046FFF76CFF9BE77B
:1023E0002046FFF766FF2046FFF765FFACE7204673
:1023F000FFF75FFF2046FFF75EFFBDE76FF00102CA
:102400001A612046FFF754FFC1E76FF080021A619E
:102410002046FEF78EF9C3E76FF040021A612046AE
:10242000FFF74AFFC5E76FF020021A612046FEF76A
:102430007FF9C7E70368454A90424AD0B0F1804F20
:1024400049D0A2F57C42904247D002F5806290428A
:1024500045D002F58062904243D002F57842904226
:1024600035D000221AB123F070034A681343374A6B
:1024700090423AD0B0F1804F50D0A2F57C429042C9
:102480004ED002F5806290424CD002F580629042BC
:102490004AD002F57842904248D002F570529042FC
:1024A00046D002F58062904244D002F580629042AC
:1024B00042D0A2F59832904240D002F5806290421C
:1024C0003ED002F5806290420DD000220EE0012243
:1024D000C8E70122C6E70122C4E70122C2E70122C0
:1024E000C0E70122BEE7012200E001221AB123F475
:1024F0004073CA68134303608B68C3620B688362CE
:10250000124B984220D003F5806398421AD00023E2
:102510000BB10B6903630123436170470122E5E7B7
:102520000122E3E70122E1E70122DFE70122DDE703
:102530000122DBE70122D9E70122D7E70122D5E713
:102540000122D3E70123E3E70123E1E70000014093
:1025500000286BD010B504460368354A934236D044
:10256000B3F1804F33D0A2F57C4293422FD002F5D5
:10257000806293422BD002F58062934227D002F50D
:102580008062934223D002F5806293421FD002F50D
:10259000704293421BD002F57052934217D002F55D
:1025A0008062934213D002F5806293420FD0A2F56D
:1025B000983293420BD002F58062934207D002F525
:1025C0008062934203D0D7211A4802F051FEA368DB
:1025D0005BB1102B09D0202B07D0402B05D0602BEE
:1025E00003D0D821134802F043FE23694BB1B3F561
:1025F000807F06D0B3F5007F03D0D9210D4802F0CB
:1026000037FE94F839305BB1022384F83930211D4C
:102610002068FFF70FFF012384F83930002010BD38
:1026200084F838302046FFF799F9EDE7012070472C
:10263000000001401063000800286ED010B5044669
:102640000368374A934237D0B3F1804F34D0A2F5B4
:102650007C42934230D002F5806293422CD002F546
:102660008062934228D002F58062934224D002F522
:102670008062934220D002F5704293421CD002F552
:102680007052934218D002F58062934214D002F542
:102690008062934210D0A2F5983293420CD002F59A
:1026A0008062934208D002F58062934204D040F2E7
:1026B000F1311C4802F0DCFDA36863B1102B0AD095
:1026C000202B08D0402B06D0602B04D040F2F231F2
:1026D000144802F0CDFD236953B1B3F5807F07D0D4
:1026E000B3F5007F04D040F2F3310E4802F0C0FD94
:1026F00094F839305BB1022384F83930211D206809
:10270000FFF798FE012384F83930002010BD84F8CB
:1027100038302046FFF7F0FAEDE70120704700BFA0
:1027200000000140106300082DE9F04104460E4608
:10273000036A23F010030362056AD0F804808769F6
:1027400027F4E6470B6847EA032725F020058B6846
:1027500045EA0315164B984227D003F5806398424B
:1027600021D00023BBB1F36833B1082B04D041F270
:102770000521104802F07CFD25F08005F36845EA4C
:10278000031525F0400528F44068736948EA83087A
:10279000B36948EA8308C4F80480A7617368A36337
:1027A0002562BDE8F0810123DCE70123DAE700BF01
:1027B000000001401063000890F83830012B00F051
:1027C000278170B516460D460446012380F838303F
:1027D00062B1042A0AD0082A08D00C2A06D0182A86
:1027E00004D040F648418B4802F042FD2B68602B34
:1027F00006D0702B04D040F64941864802F038FDDF
:10280000AB6833B1022B04D040F64A41814802F054
:102810002FFD2B6933B1042B04D040F64B417D488A
:1028200002F026FD022384F839300C2E4FD8DFE861
:1028300006F0074E4E4E554E4E4E8E4E4E4EBE003C
:102840002368754A93422FD0B3F1804F2CD0A2F564
:102850007C42934228D002F58062934224D002F554
:102860008062934220D002F5784293421CD002F558
:102870007052934218D002F58062934214D002F550
:102880008062934210D0A2F5983293420CD002F5A8
:102890008062934208D002F58062934204D040F6F1
:1028A00053415C4802F0E4FC29462068FFF71AF91E
:1028B0002268936943F0080393612268936923F0C7
:1028C000040393612268936929690B43936101238F
:1028D00084F83930002084F8380070BD23684E4AEF
:1028E00093421FD0B3F1804F1CD0A2F57C4293429B
:1028F00018D002F58062934214D002F580629342B0
:1029000010D002F5784293420CD002F570529342F7
:1029100008D0A2F59432934204D040F662413D487B
:1029200002F0A6FC29462068FFF7FEFE22689369A4
:1029300043F4006393612268936923F48063936195
:1029400022689369296943EA01239361BFE72368F9
:10295000314A934217D0B3F1804F14D0A2F57C4294
:10296000934210D002F5806293420CD002F580624F
:10297000934208D002F57842934204D040F6714168
:10298000244802F075FC29462068FFF719F92268EF
:10299000D36943F00803D3612268D36923F00403A9
:1029A000D3612268D36929690B43D3618FE7236818
:1029B000194A934217D0B3F1804F14D0A2F57C424C
:1029C000934210D002F5806293420CD002F58062EF
:1029D000934208D002F57842934204D04FF4486104
:1029E0000C4802F045FC29462068FFF745F92268AB
:1029F000D36943F40063D3612268D36923F480630D
:102A0000D3612268D369296943EA0123D3615EE770
:102A10000220704710630008000001400C4B1B6847
:102A20000C4AA2FB03235A0A41F2883303FB02F348
:102A30005A1E4BB1416B134611F0800FF8D040F293
:102A4000FF538363002070474FF00040704700BF82
:102A50000C000020D34D6210144B1B68144AA2FBDB
:102A600003235A0A41F2883303FB02F35A1ECBB107
:102A7000416B134611F0450FF8D0436B13F0040F70
:102A800003D00423836318467047436B13F0010F90
:102A900004D140F2FF538363002070470123836316
:102AA000184670474FF00040704700BF0C000020F0
:102AB000D34D6210104B1B68104AA2FB03235A0A25
:102AC00041F2883303FB02F35A1E8BB1416B13466C
:102AD00011F0450FF8D0436B13F0040F03D004231B
:102AE00083631846704740F2FF53836300207047AA
:102AF0004FF00040704700BF0C000020D34D621023
:102B0000124B1B68124AA2FB03235A0A41F2883374
:102B100003FB02F35A1EA3B1416B134611F0450F9C
:102B2000F8D0436B13F0040F03D0402383630420D9
:102B30007047436B13F0400F06D04023836300209F
:102B400070474FF000407047002070470C00002095
:102B5000D34D621084B02DE9F047064609A880E8FD
:102B60000E002E4B9E4203D0ED212D4802F080FB3B
:102B7000DDF82490B9F1000F06D0B9F5005F03D05D
:102B8000EE21274802F074FBDDF828A0BAF1000F0F
:102B900006D0BAF5806F03D0EF21214802F068FB20
:102BA000DDF82C80B8F1000F06D0B8F5007F03D017
:102BB000F0211B4802F05CFB0C9D4DB1B5F5006F98
:102BC00006D0B5F5805F03D0F121154802F050FB27
:102BD0000D9F37B1B7F5804F03D0F221104802F0B6
:102BE00047FB0E9CFF2C13D849EA0A0948EA09085A
:102BF00045EA08053D432C43736823F4FD4323F065
:102C00007F031C4374600020BDE8F04704B07047A8
:102C1000F321034802F02CFBE6E700BF002C014043
:102C2000486300080323036000207047006800F039
:102C30000300704738B505460C464B683F2B33D828
:102C4000A36843B1402B06D0C02B04D04FF4BD7114
:102C5000184802F00DFBE36853B1B3F5807F07D04D
:102C6000B3F5007F04D040F27B11124802F000FB64
:102C700023693BB1B3F5806F04D04FF4BE710D48AA
:102C800002F0F6FA2368AB606368A2681343E26857
:102C9000134322691343EA6822F47F6222F00F0291
:102CA0001343EB60002038BD40F27911014802F077
:102CB000DFFAC5E7486300080069C0B2704700004A
:102CC00030B583B00546002301930C4651B1042969
:102CD00008D0082906D00C2904D04FF4D471054837
:102CE00002F0C6FA14352C440194019B186803B015
:102CF00030BD00BF4863000838B5524B1B68524CCA
:102D0000A4FB03435B0A02FB03F2531E002A63D0B9
:102D1000446B1A4614F0450FF7D0436B13F0040FC1
:102D200003D004238363184638BD436B13F0010FAF
:102D300003D001238363184638BD0D460446FFF7D0
:102D4000BBFFA84201D0012038BD40F2FF53A3636E
:102D500000212046FFF7B4FF3C4B0340002B3ED040
:102D600000283EDB10F0804F01D0402038BD10F02D
:102D7000005F01D0802038BD10F0805F34D110F0AA
:102D8000006F34D110F0806F34D110F0807F34D1D7
:102D900010F4000F34D110F4800F34D110F4001F60
:102DA00034D110F4801F34D110F4802F34D110F4BA
:102DB000003F34D110F4803F34D110F4004F34D1AF
:102DC00010F4804F34D110F4005F34D110F0080FAC
:102DD00034D04FF4000038BD4FF0004038BD002023
:102DE00038BD4FF0007038BD4FF4807038BD4FF4DF
:102DF000007038BD4FF4806038BD4FF4006038BDBE
:102E00004FF4805038BD4FF4005038BD4FF480402F
:102E100038BD4FF4004038BD4FF4003038BD4FF49A
:102E2000802038BD4FF4002038BD4FF4801038BDED
:102E30004FF4001038BD4FF4800038BD4FF480309F
:102E400038BD00BF0C000020D34D621008E0FFFD2C
:102E500070B5254B1B68254CA4FB03435C0A41F26B
:102E6000883303FB04F35C1E002B37D0456B2346ED
:102E700015F0450FF7D0436B13F0040F03D0042374
:102E80008363184670BD436B13F0010F03D0012319
:102E90008363184670BD16460D460446FFF70CFFC7
:102EA000A84201D0012070BD40F2FF53A36300216E
:102EB0002046FFF705FF10F4604F05D010F4804F57
:102EC00006D04FF4005070BD000C3080002070BD63
:102ED00010F4004F05D04FF4805070BD4FF000400B
:102EE00070BD4FF4803070BD0C000020D34D6210D7
:102EF00038B505460C464B68B3F1007F4ED2A36847
:102F000003B3102B1ED0202B1CD0302B1AD0402BFB
:102F100018D0502B16D0602B14D0702B12D0802BD1
:102F200010D0902B0ED0A02B0CD0B02B0AD0C02BE1
:102F300008D0D02B06D0E02B04D04FF4DF711A4814
:102F400002F096F9E36833B1022B04D040F2BF11CE
:102F5000154802F08DF9236933B1042B04D04FF4E6
:102F6000E071114802F084F96369012B04D940F241
:102F7000C1110D4802F07CF923686B626368AB6293
:102F8000A368E26813432269134362691343EA6A40
:102F900022F0F7021343EB62002038BD40F2BD116E
:102FA000014802F065F9AAE74863000830B587B028
:102FB00005460191102402944023039300230493B7
:102FC0004FF48063059301A9FFF734FE41F2883284
:102FD00021462846FFF790FE07B030BD30B587B0D8
:102FE0000546019111240294402303930023049386
:102FF0004FF48063059301A9FFF71CFE41F288326C
:1030000021462846FFF778FE07B030BD30B587B0BF
:103010000546019112240294402303930023049354
:103020004FF48063059301A9FFF704FE41F2883253
:1030300021462846FFF760FE07B030BD30B587B0A7
:10304000054601911824029440230393002304931E
:103050004FF48063059301A9FFF7ECFD41F288323C
:1030600021462846FFF748FE07B030BD30B587B08F
:1030700005460191192402944023039300230493ED
:103080004FF48063059301A9FFF7D4FD41F2883224
:1030900021462846FFF730FE07B030BD30B587B077
:1030A0000546002301930C240294402203920493CA
:1030B0004FF48063059301A9FFF7BCFD034A214645
:1030C0002846FFF719FE07B030BD00BF00E1F50547
:1030D00030B587B00546019207240294402303933C
:1030E000002304934FF48063059301A9FFF7A2FD29
:1030F00041F2883221462846FFF7FEFD07B030BD79
:1031000010B586B004460023019302930393049301
:103110004FF48063059301A9FFF78CFD2046FFF76C
:103120007DFC06B010BD10B586B004464FF4D573D3
:1031300001930823029340230393002304934FF445
:103140008063059301A9FFF775FD2046FFF7D8FCC2
:1031500006B010BD30B587B0054601913724029402
:1031600040230393002304934FF48063059301A944
:10317000FFF760FD41F2883221462846FFF7BCFD8B
:1031800007B030BD10B586B0044641F0004141F4AF
:103190008011019129230293402303930023049378
:1031A0004FF48063059301A9FFF744FD2046FFF724
:1031B00081FC06B010BD10B586B004460023019313
:1031C00002220292C022039204934FF4806305937B
:1031D00001A9FFF72FFD2046FFF73EFC06B010BD0A
:1031E00010B586B00446019109230293C0230393CE
:1031F000002304934FF48063059301A9FFF71AFDA0
:103200002046FFF729FC06B010BD70B586B0054614
:103210000E46002301930324029440220392049358
:103220004FF48063059301A9FFF704FD3246214660
:103230002846FFF70DFE06B070BD30B587B00546D5
:1032400001910D24029440230393002304934FF42F
:103250008063059301A9FFF7EDFC41F28832214616
:103260002846FFF749FD07B030BD38B5044602686F
:10327000D36823F0A003D360FEF772FA05462368F3
:10328000DB6813F0200F07D1FEF76AFA401BB0F598
:103290007A7FF4D9032038BD002038BD38B50368E3
:1032A000DA6812F0400F01D0002038BD04464FF01C
:1032B000FF32DA60FEF754FA05462368DB6813F044
:1032C000400F07D1FEF74CFA401BB0F57A7FF4D9D6
:1032D000032038BD002038BD38B5002800F09A80A2
:1032E00004464368402B01D0002B6CD1A3687F2B90
:1032F0006ED8E368B3F5004F6FD2236963B1B3F5BD
:10330000001F09D0B3F5800F06D0B3F5C00F03D06E
:10331000D521414801F0ACFF636933B1B3F5801F9B
:1033200003D0D6213C4801F0A3FFA36933B1B3F524
:10333000802F03D0D721384801F09AFF637F002BFC
:1033400050D0022363772368CA225A62236853222B
:103350005A622046FFF7A2FF0546002847D122689F
:10336000936823F4E00323F04003936021688A68A4
:103370006368206903436069034313438B602368D8
:10338000E2681A6122681369A16843EA0143136184
:103390002268D36823F08003D36023689B6813F00E
:1033A000200F2BD02268136C23F48023136422682F
:1033B000136CA1690B4313642368FF225A62012333
:1033C0006377284638BDD221134801F051FF8DE7BD
:1033D000D321114801F04CFF8BE7D4210E4801F0B6
:1033E00047FF8AE723772046FDF7C0F9A9E723685E
:1033F000FF225A62042363770125E2E72046FFF7A4
:1034000034FF0028CED02368FF225A62042363775A
:103410000125D6E70125D4E780630008836B1A688D
:10342000D36B43F48073D363704770B582B00446A6
:10343000002301930068FFF763FE054610B128469C
:1034400002B070BD2068FFF76EFE064610B3002381
:10345000A3642E46DEB9019B5A1C01924FF6FF72FF
:10346000934244D000212068FFF774FE002841D128
:1034700000212068FFF786FE064600283DD1002186
:103480002068FFF71DFCC00FE4D00646E2E70023EA
:103490006364D4E70123A3640546EDB9019B5A1C7C
:1034A00001924FF6FF7293422AD000212068FFF765
:1034B00051FE05460028C2D14FF080412068FFF739
:1034C00061FE05460028BAD100212068FFF7F8FB0D
:1034D000C30FE2D01D46E0E710F0804F03D1002378
:1034E00063643546ABE7012363643546A7E74FF0D5
:1034F0008075A4E74FF08055A1E74FF080559EE717
:103500004FF080759BE770B571B10D460446016DB3
:1035100009040068FFF791FE064638B900212068CB
:10352000FFF7CEFB286001E04FF00066304670BD2B
:10353000F0B587B0044651B115461E460A4690F8CC
:103540003430DBB2012B08D0022007B0F0BD836B12
:1035500043F0006383630120F7E700238363AB1923
:10356000C16D8B4205D9836B43F0007383630120E7
:10357000EBE7032380F8343003680021D962006848
:10358000C36B43F49573C363E36B2A48D863E36B5F
:103590002948D864E36B196521687702BB0880313C
:1035A000E06B01F009FA0122244B1A60636C93422C
:1035B00000D06D024FF0FF330093019790230293E8
:1035C0000223039300230493012305936946206893
:1035D000FFF78EFC4FF400712068FFF7E7FC03460D
:1035E00098B9012E1CD98223236329462068FFF74E
:1035F0000DFDE0B1236840F2FF529A63A36B1843BC
:10360000A063012084F834009FE7226840F2FF5154
:103610009163A26B1343A363012084F8340094E701
:103620008123236329462068FFF7D8FCE1E70020C7
:103630008BE700BF5D370008073C00088C852542FA
:103640002DE9F04186B0044659B115461E460F4695
:1036500090F83430DBB2012B09D0022006B0BDE86F
:10366000F081836B43F0006383630120F6E700235E
:1036700083639319C26D934231D8032380F83430A9
:1036800003680022DA620168CB6B43F01A03CB6354
:10369000036C2E49D963036C2D49D964036C1A65F8
:1036A000436C012B00D06D024FF400712068FFF7CE
:1036B0007DFC0346C8B9012E22D9A02323632946E5
:1036C0002068FFF7D3FC10B3236840F2FF529A63DF
:1036D000A36B1843A063012084F83400BEE7836B1A
:1036E00043F0007383630120B8E7226840F2FF5182
:1036F0009163A26B1343A363012084F83400ADE708
:103700009023236329462068FFF798FCDBE74FF0FE
:103710000108104BC3F8008022687602B30880329B
:103720003946206C01F048F94FF0FF3300930196C1
:1037300090230293002503950495CDF814806946E3
:103740002068FFF7D5FB284688E700BF1D34000836
:10375000073C00088C8525427047704710B5846B84
:10376000236B822B0FD02268D36A23F00803D36225
:10377000236840F2FF529A63012384F834302046D4
:10378000FFF7EAFF10BD2068FFF788FC034600281A
:10379000E9D0A26B1343A3632046FFF7DEFFE2E705
:1037A00030B4436E9A0F0A70C3F383624A70C3F356
:1037B00001638B7090F86630CB7090F865300B71B8
:1037C00090F864304B7190F86B301B01CB80B0F8EF
:1037D0006A20CB889BB2C2F303142343CB8002F050
:1037E0000F020A7290F86930DA094A72C3F3801244
:1037F0008A72C3F34012CA72C3F300120A73002222
:103800004A73426C002A40F092809B0203F44063AA
:103810000B61836E0A699B0003F47F7313430B6192
:10382000C36E0A6942EA93720A61C3F3C2620A75FF
:10383000C3F302634B75C26EC2F30743C2F3425433
:103840008C75C2F38242CA755B0003F006030B76E7
:10385000C26EC2F307230C7EC2F3C03222430A7643
:103860000A69013242650C7E023402FA04F44465AE
:103870000A7AD5B20122AA408265520A02FB04F2FA
:10388000C2654FF400720266C3F380124A765B0091
:1038900003F07E038B76C36E8A7EC3F3C01422438B
:1038A0008A7603F07F03CB76036F1A0EDC0F0C775A
:1038B000C3F341744C77C3F382638B77930003F0B7
:1038C0000C03CB77036FCA7FC3F381542243CA77BB
:1038D000C3F3405281F82020002281F82120C3F355
:1038E000004381F82230036FC3F3C03481F82340D2
:1038F000C3F3803481F82440C3F3403481F8254079
:10390000C3F3003481F82640C3F3812481F82740B3
:10391000C3F3012381F82830036FC3F3460381F812
:103920002930012381F82A30104630BC7047012A23
:103930000CD0036840F2FF529A63836B43F08053CC
:103940008363012280F834201046EEE7836E1B0467
:1039500003F47C130B6190F86F200B6943EA022398
:103960000B610A6990F86E3013430B6190F86D306B
:103970000C690134A4024465C4654FF40072826589
:10398000026681E770B590B004460123ADF81230AD
:103990000068FFF74BF920B94FF08065284610B05A
:1039A00070BD636C032B1AD02068FFF704FC05463A
:1039B0000028F3D100212068FFF782F96067042115
:1039C0002068FFF77DF9A06708212068FFF778F9E4
:1039D000E0670C212068FFF773F9C4F88000636C7E
:1039E000032B07D00DF112012068FFF70EFC0546EE
:1039F0000028D3D1636C032B1DD0BDF812102165B4
:103A000009042068FFF7ECFB05460028C6D1002119
:103A10002068FFF755F9606604212068FFF750F928
:103A2000A06608212068FFF74BF9E0660C212068AA
:103A3000FFF746F9206704212068FFF741F9000DE0
:103A4000E06405A92046FFF7ABFE226D12040023B7
:103A50002068FFF73DFB054600289FD1234653F819
:103A6000106B93E807008DE80700043494E80E001B
:103A70003046FFF76FF891E770B58AB0054600242D
:103A800004940594069407940894762309930AAB4A
:103A900013E907008DE8070004AB0ECB2868FFF799
:103AA00059F8124E34602868FFF7BCF801233360E0
:103AB0000220FDF75BFE2846FFF7B7FC40B1034646
:103AC000012085F83400AA6B1343AB630AB070BDC4
:103AD0002846FFF757FF034630B1012085F8340030
:103AE000AA6B1343AB63F1E70020EFE7A080254208
:103AF00000285DD010B5044602682E4B9A4204D0CF
:103B00004FF49E712C4801F0B3FB63683BB1B3F5F1
:103B1000005F04D040F23D11274801F0A9FBA368E3
:103B20003BB1B3F5806F04D04FF49F71224801F090
:103B30009FFBE3683BB1B3F5007F04D040F23F1137
:103B40001D4801F095FB236953B1B3F5006F07D011
:103B5000B3F5805F04D04FF4A071174801F088FBE3
:103B600063693BB1B3F5804F04D040F24111124874
:103B700001F07EFBA369FF2B0FD894F8343093B18A
:103B8000032384F834302046FFF776FF0020A0633B
:103B90002063012384F8343010BD4FF4A17106482E
:103BA00001F066FBE9E723772046FCF7FDFDE7E738
:103BB00001207047002C0140B8630008436C0B6083
:103BC000836C4B60C36C8B60036DCB60436D0B618A
:103BD000836D4B61C36D8B61036ECB6100207047B9
:103BE00010B582B0044602A9002341F8043DFFF756
:103BF0008AFC18B10346A26B1343A3630198C0F378
:103C0000432002B010BD10B5846BE36B5B6D012BDC
:103C100007D0236C5B6D012B03D02046FFF79DFD81
:103C200010BD236840F2FF529A632268D36B23F4DD
:103C30009D73D363A36B43F08043A3632046FFF7D8
:103C4000CFFF0538C0B2012803D9012384F83430EE
:103C5000E3E72068FFF722FAA36B1843A063F4E7B9
:103C600008B50122064B1A7001F086F820B9044A03
:103C7000137803F0FE031370014B187808BD00BFE2
:103C80000800002010B504460122074B1A7001F00D
:103C900095F810B1044B187810BD2046FFF7E0FFEF
:103CA000014B1870F6E700BF0800002008B5FFF7C9
:103CB000D7FF08BD10B5084611460024174A146006
:103CC0001A4601F041F808B1012010BDFDF748FD8A
:103CD0000446124B1B6833B9FDF742FD001B47F247
:103CE0002F539842F5D90D4B1B680BB9012010BD1D
:103CF00000220A4B1A60FDF733FD0446FDF730FD44
:103D0000001B47F22F53984205D801F035F80028E0
:103D1000F4D1002010BD012010BD00BFA000002084
:103D200010B5084611460024174A14601A4601F0DF
:103D300017F808B1012010BDFDF712FD0446124B23
:103D40001B6833B9FDF70CFD001B47F22F53984257
:103D5000F5D90D4B1B680BB9012010BD00220A4B91
:103D60001A60FDF7FDFC0446FDF7FAFC001B47F264
:103D70002F53984205D800F0FFFF0028F4D100200F
:103D800010BD012010BD00BFA4000020154B1B7802
:103D900013F0010F01D00320704710B588B014460E
:103DA00003291CD8DFE801F002050C13002008B03D
:103DB00010BD684600F0EAFF069B23600020F6E78E
:103DC000684600F0E3FF079B23800020EFE768468A
:103DD00000F0DCFF079B5B0A23600020E7E704207C
:103DE000E5E700BF0800002008B503490348FDF7D8
:103DF00065FC034B187008BDFC020020EC63000852
:103E0000F802002030B583B004460368013B062B5E
:103E10001ED8236813F0050F46D0A368023B052B7C
:103E20001CD86368323BB3F5BF7F1DD80022984B86
:103E30001A60FDF795FC0546964B1B6813F0006F62
:103E400018D0FDF78DFC401B0228F5D903201CE19A
:103E500040F6DD11904801F00BFADAE740F6E41184
:103E60008D4801F005FADCE740F6E5118A4801F0DB
:103E7000FFF9DBE76268A3681B0743EA8213854A00
:103E8000C2F884300122824B1A60FDF769FC0546B6
:103E9000804B1B6813F0006F06D1FDF761FC401BDF
:103EA0000228F5D90320F0E0236813F0020F00F098
:103EB000EB80E368B3F5807F7ED0B3F5007F7BD0E5
:103EC000764A934278D002F58032934274D002F55C
:103ED0008032934270D002F5803293426CD002F56A
:103EE0008032934268D002F58032934264D002F56A
:103EF0008032934260D002F5803293425CD002F56A
:103F00008032934258D002F58032934254D002F569
:103F10008032934250D002F5803293424CD002F569
:103F20008032934248D002F58032934244D002F569
:103F30008032934240D002F5803293423CD002F569
:103F40008032934238D002F58032934234D002F569
:103F50008032934230D002F5803293422CD002F569
:103F60008032934228D002F58032934224D002F569
:103F70008032934220D002F5803293421CD002F569
:103F80008032934218D002F58032934214D002F569
:103F90008032934210D002F5803293420CD002F569
:103FA0008032934208D002F58032934204D040F62A
:103FB0001621394801F05CF900230193354B1A6C46
:103FC00042F080521A641B6C03F080530193019BF2
:103FD000334A136843F480731360FDF7C1FB054651
:103FE0002F4B1B6813F4807F06D1FDF7B9FB401BF4
:103FF0000228F5D9032048E0264B1B6F13F44073C9
:1040000012D0E26802F4407293420DD0214B1A6F35
:1040100022F44072234901200860002008601A67DA
:104020001B6F13F0010F13D1E36803F44072B2F574
:10403000407F1ED0174A936823F4F8139360154904
:104040000B6FE268C2F30B0213430B6700201CE006
:10405000FDF786FB05460F4B1B6F13F0020FE3D1F4
:10406000FDF77EFB401B41F288339842F3D90320D1
:104070000BE008498A6822F4F81223F0704323F415
:10408000407313438B60DAE7002003B030BD00BFFC
:104090006800474200380240006400080003020044
:1040A00000700040400E47420268D36823F49073CA
:1040B000D3600268536923F001035361202380F821
:1040C0003A30704790F83930DBB2212B01D0022012
:1040D00070478368B3F5805F17D00268036A591C84
:1040E00001621B785360C38C9BB2013B9BB2C384BB
:1040F000DBB90268D36823F08003D3600268D36819
:1041000043F04003D36000207047036A02681B88B5
:10411000C3F30803536003691BB9036A02330362E4
:10412000E1E7036A01330362DDE700207047000026
:104130002DE9F04704464268B64B9A4200F2A68049
:10414000E3683BB1B3F5005F04D040F68611B24896
:1041500001F08EF8236953B1B3F5806F07D0B3F542
:10416000C06F04D040F68711AB4801F081F8636955
:104170004FF6F372134200D123B940F68811A648D6
:1041800001F076F82268136923F44053E1680B4389
:1041900013612168CB6823F4164323F00C03A26853
:1041A0002069024360690243E06902431343CB6024
:1041B0002268536923F44073A1690B435361E36997
:1041C000B3F5004F68D0D4F80080944B984500F0C8
:1041D000298103F58063984500F02481FDF7FAF901
:1041E00000EB800000EB80006568AD00B0FBF5F5EA
:1041F0008B4FA7FB05356D092E01FDF7EBF900EBA1
:10420000800000EB80006568AD00B0FBF5FAFDF7BB
:10421000E1F900EB800000EB80006568AD00B0FBC9
:10422000F5F5A7FB05356D094FF0640909FB15A5E8
:104230002D013235A7FB05356D0905F0F005354434
:10424000FDF7C8F900EB800000EB80006668B6005F
:10425000B0FBF6F6FDF7BEF900EB800000EB800046
:1042600063689B00B0FBF3F0A7FB0030400909FB3B
:1042700010694FEA091909F13209A7FB0937C7F399
:1042800043172F44C8F80870BDE8F08740F6851141
:10429000614800F0EDFF53E7D4F8008003F180435C
:1042A00003F5104398455CD003F58063984558D0DA
:1042B000FDF790F900EB800000EB800065686D0071
:1042C000B0FBF5F5564FA7FB05356D092E01FDF73F
:1042D00081F900EB800000EB800065686D00B0FBA9
:1042E000F5FAFDF777F900EB800000EB80006568D8
:1042F0006D00B0FBF5F5A7FB05356D094FF06409BE
:1043000009FB15A5ED003235A7FB05356D096D00DC
:1043100005F4F8753544FDF75DF900EB800000EB1E
:10432000800066687600B0FBF6F6FDF753F900EB07
:10433000800000EB800063685B00B0FBF3F3A7FB39
:1043400003235B0909FB13694FEAC90909F1320923
:10435000A7FB0937C7F342172F44C8F80870BDE818
:10436000F087FDF747F900EB800000EB80006568FF
:104370006D00B0FBF5F52A4FA7FB05356D092E0141
:10438000FDF738F900EB800000EB800065686D00F8
:10439000B0FBF5FAFDF72EF900EB800000EB800092
:1043A00065686D00B0FBF5F5A7FB05356D094FF0AD
:1043B000640909FB15A5ED003235A7FB05356D092C
:1043C0006D0005F4F8753544FDF714F900EB800035
:1043D00000EB800066687600B0FBF6F6FDF70AF9A0
:1043E00000EB800000EB800063685B00B0FBF3F340
:1043F000A7FB03235B0909FB13694FEAC90909F10C
:104400003209A7FB0937C7F342172F44C8F80870D1
:10441000BDE8F087A037A000386400080010014014
:104420001F85EB51FDF7E6F800EB800000EB800004
:104430006568AD00B0FBF5F5264FA7FB05356D09A6
:104440002E01FDF7D7F800EB800000EB80006568D7
:10445000AD00B0FBF5FAFDF7CDF800EB800000EB06
:1044600080006568AD00B0FBF5F5A7FB05356D096B
:104470004FF0640909FB15A52D013235A7FB053561
:104480006D0905F0F0053544FDF7B4F800EB800048
:1044900000EB80006668B600B0FBF6F6FDF7AAF800
:1044A00000EB800000EB800063689B00B0FBF3F33F
:1044B000A7FB03235B0909FB13694FEA091909F1FB
:1044C0003209A7FB0937C7F343172F44C8F8087010
:1044D000BDE8F0871F85EB512DE9F04105460F46F9
:1044E00016469846069C2B681B6837EA03030CBFE8
:1044F00001230023B3421ED1B4F1FF3FF3D02CB10E
:10450000FDF72EF9A0EB08008442ECD22A68D368AC
:1045100023F4D073D3602A68536923F001035361F5
:10452000202385F8393085F83A30002385F8383073
:104530000320BDE8F0810020BDE8F081002800F0F4
:10454000868010B5044683692BB30368414A9342C1
:1045500010D0A2F54C4293420CD002F580629342F7
:1045600008D002F54C42934204D04FF480713A488F
:1045700000F07EFEA3695BB3B3F5807F28D0B3F56E
:10458000007F25D0B3F5407F22D040F201113248A0
:1045900000F06EFE1CE003682E4A934218D0A2F58C
:1045A0004C42934214D002F58062934210D002F53F
:1045B000806293420CD002F58062934208D002F5EB
:1045C0004442934204D040F20511234800F050FECB
:1045D000A3683BB1B3F5805F04D040F207111E48D9
:1045E00000F046FEE3693BB1B3F5004F04D04FF451
:1045F0008471194800F03CFE94F839300BB3242341
:1046000084F839302268D36823F40053D3602046FD
:10461000FFF78EFD2268136923F49043136122682B
:10462000536923F02A0353612268D36843F400538B
:10463000D3600020E063202384F8393084F83A30D6
:1046400010BD84F838302046FBF7D0FFD7E70120B3
:10465000704700BF00100140386400082DE9F041A8
:1046600082B01E4690F83930DBB2202B04D00223F2
:10467000184602B0BDE8F08104460D469046002978
:1046800055D0002A55D090F83830012B01D10223A3
:10469000EEE7012380F838300023C363212380F83C
:1046A0003930FDF75DF80746A4F82480A4F8268089
:1046B00010E000963B46002280212046FFF70CFFC9
:1046C000002838D122682B88C3F30803536023697C
:1046D000CBB90235E38C9BB2BBB1E38C9BB2013BFF
:1046E0009BB2E384A368B3F5805FE2D000963B46BB
:1046F000002280212046FFF7EFFEF0B923682A78D8
:104700005A600135E6E70135E4E700963B460022B2
:1047100040212046FFF7E0FE034608B10323A7E748
:10472000202284F83920002284F83820A0E70123D1
:104730009EE701239CE703239AE7032398E770474A
:1047400008B50168CB6823F04003CB60202380F8D4
:104750003930FFF7F4FF002008BD704708B590F826
:104760003A30DBB2222B01D0022008BD8368B3F5BA
:10477000805F0FD003690BBB836A5A1C8262026898
:1047800052681A70C38D9BB2013B9BB2C385F3B1D3
:10479000002008BD826A036943B903685B68C3F3FC
:1047A00008031380836A02338362EBE703685B6864
:1047B000DBB21380836A01338362E3E7826A531CAE
:1047C000836203685B6803F07F031370DAE70268B3
:1047D000D36823F49073D3600268536923F0010314
:1047E0005361202380F83A30FFF7B7FF002008BD5F
:1047F0007047000010B5044602681368D16852691A
:1048000013F00F0005D113F0200F02D011F0200F8C
:1048100053D1002867D012F0010202D111F4907F29
:1048200061D013F0010F06D011F4807F03D0E06B4C
:1048300040F00100E06313F0040F04D01AB1E06B04
:1048400040F00200E06313F0020F04D01AB1E06BF5
:1048500040F00400E06313F0080F04D01AB1E26BDB
:1048600042F00802E263E26B002A48D013F0200F06
:1048700002D011F0200F24D123685B6903F04003BC
:10488000E26B12F0080F00D13BB32046FFF70CFC9F
:1048900023685A6912F0400F1BD05A6922F0400277
:1048A0005A61636B8BB11A4A1A65606B00F0D6F8D7
:1048B00028B3606B036D984710BD2046FFF74EFF8D
:1048C00010BD2046FFF74AFFD6E72046FFF790FFCE
:1048D00010BD2046FFF78CFF10BD2046FFF788FF74
:1048E0000023E36310BD13F0800F02D011F0800F9E
:1048F00006D113F0400F02D011F0400F04D110BDCB
:104900002046FFF7DFFB10BD2046FFF719FFF6E753
:104910001549000808B5806B0023C385C384FFF7E1
:1049200067FF08BD08B54FF40061044800F0D0FBF4
:1049300008B9002008BD012008BD00BF00080240E2
:104940000F49D1F8883043F47003C1F888300D4B1B
:104950001A6842F001021A60002098601A6822F07A
:10496000847222F480321A60074A5A601A6822F46C
:1049700080221A60D8604FF000638B60704700BFE0
:1049800000ED00E0003802401030002430B405682B
:104990002C6824F480242C60046863608368402BB6
:1049A00005D0036899600368DA6030BC704703681B
:1049B0009A600368D960F8E72DE9F04104460F4694
:1049C00090461D46866D5A1E4FF6FE739A4211D8C8
:1049D00094F83430012B3BD0012384F8343094F820
:1049E0003530DBB2012B0BD0002384F834300220A9
:1049F000BDE8F0814FF4EA71174800F039FCE7E7B1
:104A0000022384F83530002363652B46424639463D
:104A10002046FFF7BBFFE26D3F239340B36022685F
:104A2000136843F0160313602268536943F0800350
:104A30005361236C23B12268136843F008031360A9
:104A40002268136843F0010313600020BDE8F08181
:104A50000220BDE8F08100BF8864000890F835307E
:104A6000DBB2022B03D0802343650120704705236E
:104A700080F835300268136823F0010313600020CA
:104A8000704700002DE9F0418CB0002401944E4B9A
:104A90001A6B42F010021A631A6B02F010020192B4
:104AA000019A02941A6B42F004021A631A6B02F024
:104AB00004020292029A03941A6B42F080021A6373
:104AC0001A6B02F080020392039A04941A6B42F06C
:104AD00001021A631A6B02F001020492049A05940F
:104AE0001A6B42F002021A631A6B02F0020205927C
:104AF000059A06941A6B42F008021A631B6B03F0C6
:104B000008030693069B314E2246C021304600F032
:104B1000F3FA2F4F22464FF48051384600F0ECFA5A
:104B2000182307932B4D0895099407A92A4800F0EC
:104B300053F9C02307934FF00108CDF82080099462
:104B40000A9407A9304600F047F9202307930895F7
:104B50000994224D07A9284600F03EF94FF48056EB
:104B60000796CDF8208009940A9407A9384600F0EA
:104B700033F907960894099407A9194800F02CF90D
:104B80004FF4006307930894099407A9284600F09E
:104B900023F922462146092000F042F8092000F0BE
:104BA00083F8224621460A2000F03AF80A2000F055
:104BB0007BF822462146172000F032F8172000F03B
:104BC00073F80CB0BDE8F0810038024000000240EC
:104BD00000040240000011100010024000080240D2
:104BE000000C024010B50446C31E042B0FD80A4A1D
:104BF000D36823F4E0631B041B0C240204F4E06478
:104C0000234343F0BF6343F40033D36010BDA221BC
:104C1000024800F02DFBEAE700ED00E0C064000868
:104C200070B505460C4616460F2A24D80F2C27D8F7
:104C30001A4BDB68C3F30223C3F10702042A28BF1F
:104C40000422191D062920D9033B012101FA02F291
:104C5000013A14409C4001FA03F3013B33401C43EA
:104C6000002D14DB2401E4B205F1604505F5614532
:104C700085F8004370BDBA21094800F0F9FAD5E77C
:104C8000BB21074800F0F4FAD2E70023DDE705F086
:104C90000F052401E4B2034B5C5570BD00ED00E04C
:104CA000C064000814ED00E010B5041E09DB6209C1
:104CB00004F01F04012303FA04F4044B43F82240D8
:104CC00010BDCE21024800F0D3FAF0E700E100E089
:104CD000C06400080138B0F1807F0AD2064B5860EA
:104CE000F021064A82F823100020986007221A60FB
:104CF00070470120704700BF10E000E000ED00E0C9
:104D000010B50446042800D038B9042C0BD0094A49
:104D1000136823F00403136010BD40F2D911064854
:104D200000F0A6FAF1E7034A136843F004031360A6
:104D300010BD00BF10E000E0C0640008704708B577
:104D4000FFF7FCFF08BD000008B513460A46014600
:104D50000248FEF7EDFB00B1012008BD1401002060
:104D600008B513460A4601460248FEF769FC00B141
:104D7000012008BD1401002008B50348FEF730FFEC
:104D8000043818BF012008BD1401002008B50146F1
:104D90000148FEF713FF08BD1401002000B583B0E1
:104DA00001238DF80730FFF7BDFD10B900238DF802
:104DB00007309DF8070003B05DF804FB08B5FFF766
:104DC000EDFF012801D0012008BD0248FEF790FE4A
:104DD00008BD00BF140100202DE9F04782B08046D5
:104DE0000F46B44B984223D003F5806398421FD0FE
:104DF00003F5806398421BD003F58063984217D077
:104E000003F58063984213D003F5806398420FD076
:104E100003F5806398420BD003F58063984207D076
:104E200003F58063984203D0C321A34800F020FA21
:104E30003B689AB212B11B0C1B041BB1C4219E48E3
:104E400000F016FA7B68012B22D9112B20D0022BFF
:104E50001ED0122B1CD0994A934219D002F5801211
:104E6000934215D002F58012934211D0A2F5F812A8
:104E700093420DD002F58012934209D002F58012C0
:104E8000934205D0032B03D0C5218B4800F0F0F9E5
:104E9000BB68022B01D8002575E0C621864800F0CA
:104EA000E7F9F8E73B69FBB1092B1DD0012B1BD0BB
:104EB000022B19D0032B17D0042B15D0052B13D0A0
:104EC000062B11D0072B0FD0082B0DD00A2B0BD09F
:104ED0000B2B09D00C2B07D00D2B05D00F2B03D09B
:104EE000D721754800F0C4F9E908083158F8213095
:104EF00005F0070292000F20904023EA0003386972
:104F000000FA02F2134348F821304CE0EA216A48E3
:104F100000F0AEF963E0072100E00021A1400A4360
:104F20000233674941F82320664B1A686FEA090388
:104F300002EA0301786810F4803F01D049EA0201D7
:104F4000604A1160526803EA0201786810F4003F79
:104F500001D049EA02015B4A5160926803EA02010A
:104F6000786810F4801F01D049EA0201554A916027
:104F7000D2681340796811F4001F01D049EA020396
:104F8000504AD36001350F2D00F290800124AC40CF
:104F90003B6804EA03094C45F4D17B68022B81D0BD
:104FA000122B3FF47FAFD8F800304FEA450A0326B2
:104FB00006FA0AF6F64333407A6802F0030202FA70
:104FC0000AF21343C8F800307B685A1E012A03D93D
:104FD000112B01D0122B16D1FB68032B96D8D8F8D1
:104FE00008303340FA6802FA0AF21343C8F808306E
:104FF000D8F8043023EA04047B68C3F30013AB4001
:105000001C43C8F80440D8F80C301E40BB6803FAB3
:105010000AF31E43C8F80C607B6813F0805FB1D0C0
:1050200000230193284B5A6C42F480425A645B6C13
:1050300003F480430193019BAB08991C204A52F86A
:10504000212005F003018C000F21A14022EA01027A
:10505000184880453FF461AF1C4988451AD001F5D6
:105060008061884518D001F58061884516D001F52A
:105070008061884514D001F58061884512D001F522
:105080008061884510D001F5806188453FF443AFC9
:10509000082143E7012141E702213FE703213DE7E2
:1050A00004213BE7052139E7062137E702B0BDE8D7
:1050B000F08700BF00000240F864000800001110F3
:1050C00000380140003C014000380240000402402A
:1050D00038B505460C4621B12B691C4207D100208A
:1050E00038BD4FF4C771034800F0C2F8F4E701205F
:1050F00038BD00BFF864000870B5064615460C467A
:1051000051B1012D04D94FF4D871074800F0B0F81F
:1051100045B92404B46170BD40F2AF11024800F0FB
:10512000A7F8EEE7B46170BDF864000870470000AE
:1051300008B5054B5B69034200D108BD024B5861BD
:10514000FFF7F4FFF9E700BF003C0140FEE7000075
:1051500000B599B000210191314B1A6C42F0805298
:105160001A641B6C03F080530193019B02912D4B39
:105170001A6842F480421A601B6803F48043029369
:10518000029B05230C934FF480330D9301230E9360
:10519000022312934FF48002139204221492A82245
:1051A00015921693072317930CA8FBF751FE58BBD3
:1051B0000F23079302230893002309934FF4A0536E
:1051C0000A930B93052107A8FCF7F6F800BB02230E
:1051D00003934FF48073069303A8FEF713FED8B928
:1051E000FCF7F2F9104BA3FB00308009FFF772FDCA
:1051F0000420FFF785FD002211464FF0FF30FFF736
:105200000FFD19B05DF804FBAD210848FFF79EFFC4
:10521000BB210648FFF79AFFC2210448FFF796FF1B
:105220000038024000700040D34D62103065000825
:1052300008B5FCF76FFAFFF78BFFFFF723FCFBF7CE
:10524000CDFDFBF777FAFBF79FFAFCF7A3FAFCF723
:10525000F3FBFCF72DFBFCF757FBFBF7A9F9FEF777
:10526000C3FD024800F0C2F8FEE700BF3C6500083D
:105270007047000008B503460D4A126862B10C4A37
:1052800010680C4A12681268A2F5007203449A4230
:1052900006D3074A136008BD0749054A1160EEE7C7
:1052A00000F072F80C2303604FF0FF3008BD00BF20
:1052B000A800002008ED00E06807002070B5164641
:1052C000002405E04D1C087800F022F8013429463E
:1052D000B442F7DB304670BD4FF0FF3070474FF4FB
:1052E00000534B600020704701207047002070473A
:1052F000F8B50D461746002405E06E1CAFF300809C
:10530000287001343546BC42F7DB3846F8BD000052
:1053100000B583B002A941F8040D4FF6FF730122D6
:105320000348FFF79BF9019803B05DF804FB00BF49
:10533000B4000020DFF834D0002103E00C4B5B58B0
:10534000435004310B480C4B42189A42F6D30B4A97
:1053500002E0002342F8043B094B9A42F9D3FFF7DD
:10536000EFFA00F017F8FFF763FF70470000022024
:10537000FC6500080000002074000020740000207C
:1053800064070020FEE70000014B1868704700BF6B
:105390001000002070B50D4E0D4CA41BA41000256C
:1053A000A54209D10B4E0C4C00F018FFA41BA41011
:1053B0000025A54205D170BD56F825309847013526
:1053C000EEE756F8253098470135F2E7F465000816
:1053D000F4650008F4650008F86500080244034617
:1053E000934200D1704703F8011BF9E70FB40A4B51
:1053F00013B51C6824B1A36913B9204600F04EF818
:1054000005AB049AA1680193204600F059F902B057
:10541000BDE8104004B0704710000020014900F0C2
:10542000A9B800BF955F0008002310B504460360CB
:105430004360836081814366C2810361436183610C
:10544000194608225C30FFF7C9FF054B6362054B24
:10545000A362054BE362054B2462236310BD00BFCA
:10546000395C00085B5C0008935C0008B75C0008CE
:1054700070B54A1E682555430E4605F1740100F0CB
:1054800097F8044640B1002180E842000C30A0604B
:1054900005F16802FFF7A2FF204670BD836910B5D1
:1054A000044633BB8364C3640365124B124A1B6812
:1054B0008262984204BF0123836100F01FF860609C
:1054C000204600F01BF8A060204600F017F80022EC
:1054D000E06004216068FFF7A7FF01220921A068AE
:1054E000FFF7A2FF02221221E068FFF79DFF0123D0
:1054F000A36110BD546500081D540008F8B51C4B8D
:105500001E68B369074613B93046FFF7C7FF483630
:10551000B4687368013B03D5336833B13668F7E785
:10552000B4F90C506DB16834F4E704213846FFF744
:105530009FFF30600028F1D10C233B6004462046D9
:10554000F8BD4FF6FF73E3810123A38165662560F3
:10555000A560656025616561A5610822294604F1A1
:105560005C00FFF73BFF6563A563A564E564E6E7C0
:10557000546500082DE9F8438046894600F1480447
:10558000002614B93046BDE8F883A5686768013F76
:1055900001D52468F5E7AB89012B07D9B5F90E30A1
:1055A000013303D029464046C84706436835EEE735
:1055B00070B5CD1C25F0030508350C2D38BF0C2522
:1055C000002D064601DBA94203D90C2333600020DD
:1055D00070BD00F07FFD234A1468214691B9224C2A
:1055E00023681BB9304600F017FB2060294630467F
:1055F00000F012FB431C26D10C233360304600F030
:105600006AFDE4E70B685B1B1AD40B2B0FD90B6008
:10561000CD50CC18304600F05EFD04F10B00231D88
:1056200020F00700C31A1BD05A42E25070BD8C42D2
:105630000DBF63684B686360136018BF0C46E9E7F1
:105640000C464968CAE7C41C24F00304A04205D0F4
:10565000211A304600F0E0FA0130CDD02560D9E7BC
:1056600070BD00BFAC000020B00000209368013B7B
:10567000002B10B4936009DA9469A34202DBCBB229
:105680000A2B03D15DF8044B00F01ABB1368581CB9
:1056900010601970C8B25DF8044B7047F8B5064643
:1056A0000F461446D518AC4201D1002007E03A4617
:1056B00014F8011B3046FFF7D9FF431CF3D1F8BDA6
:1056C0002DE9F04F9DB00C4617460393064618B1DE
:1056D00083690BB9FFF7E2FE7C4B9C4257D174689B
:1056E000A38918075DD52369002B5AD0002309939D
:1056F00020238DF8293030238DF82A304FF0010B0C
:10570000B846454615F8013B002B55D1B8EB070AC2
:105710000BD053463A4621463046FFF7BFFF0130D3
:1057200000F0C480099B5344099398F80030002B83
:1057300000F0BC8000234FF0FF32049307930592E2
:1057400006938DF853301A93052229786048FAF7AA
:1057500057FD05F10108049B002831D1D90644BF4B
:1057600020228DF853201A0744BF2B228DF8532096
:105770002A782A2A2CD0079A00210A20A846013527
:1057800098F80030303B092B6DD971B326E0514BAE
:105790009C4201D1B468A3E74F4B9C4208BFF46818
:1057A0009EE72146304600F0EFFA00289ED04FF0E9
:1057B000FF301DB0BDE8F08F252BA7D0A846A0E78D
:1057C000434A801A0BFA00F0184304904546BBE7A1
:1057D000039A111D12680391002A01DB079204E06D
:1057E000524243F002030792049398F800302E2BA4
:1057F00010D198F801302A2B08F1010137D1039B11
:105800001A1D1B680392002BB8BF4FF0FF3308F13D
:1058100002080593314D98F8001003222846FAF744
:10582000EFFC40B14023401B03FA00F0049B03430C
:10583000049308F1010898F8001029488DF8281001
:10584000062208F10107FAF7DBFC002834D0254BCB
:1058500003BB039B073323F0070308330393099B20
:105860004B4409934CE700FB0232012186E70023F9
:10587000059318460A258846013198F80020303AE9
:10588000092A03D9002BC5D00590C3E705FB0020EA
:105890000123F0E703AB00932246134B04A93046E3
:1058A000AFF30080B0F1FF3F8146D8D1A3895B06FA
:1058B0003FF57DAF09987CE703AB009322460A4B86
:1058C00004A9304600F088F8ECE700BF78650008CE
:1058D000B86500089865000858650008BE650008AE
:1058E000C2650008000000009D5600082DE9F04741
:1058F00091461F468A680B69DDF820809342B8BF45
:105900001346C9F8003091F8432006460C4612B100
:105910000133C9F800302368990642BFD9F8003036
:105920000233C9F80030256815F0060507D104F1E7
:10593000190AE368D9F800209B1A9D4229DB94F8E4
:1059400043302268003318BF012392062ED404F19D
:10595000430239463046C047013021D02368E5680C
:10596000D9F8002003F00603042B08BFAD1AA36882
:1059700022690CBF25EAE57500259342C4BF9B1A36
:10598000ED184FF000091A344D451BD10020BDE839
:10599000F0870123524639463046C047013003D1D3
:1059A0004FF0FF30BDE8F0870135C2E7E1185A1C1F
:1059B000302081F84300224494F8451082F84310C7
:1059C0000233C4E70123224639463046C04701303E
:1059D000E6D009F10109D7E72DE9F04317460A7E21
:1059E00085B06E2A984606460C460C9B01F1430E84
:1059F00000F0BC801AD8632A2ED00AD8002A00F002
:105A0000C880582A00F08A8004F1420584F84220B8
:105A10002AE0642A01D0692AF6D121681A6811F0B7
:105A2000800F23D0111D1960136827E0732A00F03E
:105A3000B48008D86F2A2AD0702AE5D10A6842F0CB
:105A400020020A6003E0752A21D0782ADCD178226E
:105A500084F845206E4964E01A6801F14205111D81
:105A60001960136884F842300123A3E011F0400F5D
:105A700002F104011960D7D0B2F90030002B03DA2B
:105A80002D225B4284F8432062490A2217E02068F5
:105A9000196810F0800F03D0081D18600B6806E02D
:105AA00010F0400F01F104001860F7D00B8859493D
:105AB0006F2A14BF0A220822002084F84300656878
:105AC000A560002DC0F29C80206820F004002060BA
:105AD000002B3FD1002D40F095807546082A0BD150
